:020000040000FA
:100000000C9463000C9409040C94E2030C943004E7
:100010000C9430040C9430040C948B000C948B00E2
:100020000C948B000C948B000C948B000C948B0024
:100030000C948B000C948B000C948B000C948B0014
:100040000C9498030C948B000C9466030C9440035E
:100050000C948B000C948B000C948B000C948B00F4
:100060000C948B000C948B000000000024002700EF
:100070002A0000000008000201000003040700003D
:1000800000000000000000000000230026002900FE
:1000900000000000250028002B00040404040404D0
:1000A0000404020202020202030303030303010227
:1000B00004081020408001020408102001020408F6
:1000C0001020F4048B0711241FBECFEFD8E0DEBF51
:1000D000CDBF22E0AAE4B1E001C01D92AD35B20768
:1000E000E1F711E0A0E0B1E0E6E2F4E102C0059042
:1000F0000D92AA34B107D9F710E0C2E6D0E004C0EF
:100100002197FE010E940E08C136D107C9F70E944F
:10011000B2050C94060A0C940000AF92BF92CF92E5
:10012000DF92EF92FF920F931F93CF93DF936C01B7
:100130007B018B01040F151FEB015E01AE18BF0898
:10014000C017D10759F06991D601ED91FC9101904A
:10015000F081E02DC6010995892B79F7C501DF9162
:10016000CF911F910F91FF90EF90DF90CF90BF90B4
:10017000AF900895FC01538D448D252F30E0842FDE
:1001800090E0821B930B541710F0CF9608950197BF
:100190000895FC01918D828D981761F0A28DAE0FAC
:1001A000BF2FB11D5D968C91928D9F5F9F73928F33
:1001B00090E008958FEF9FEF0895FC01918D828D5F
:1001C000981731F0828DE80FF11D858D90E008952C
:1001D0008FEF9FEF0895FC01918D228D892F90E084
:1001E000805C9F4F821B91098F739927089587E93F
:1001F00091E00E94EB0021E0892B09F420E0822F9E
:10020000089580E090E0892B29F00E94F700811189
:100210000C9400000895FC01A48DA80FB92FB11D06
:10022000A35ABF4F2C91848D90E001968F7399272C
:10023000848FA689B7892C93A089B1898C9183700A
:1002400080648C93938D848D981306C00288F38903
:10025000E02D80818F7D80830895EF92FF920F9330
:100260001F93CF93DF93EC0181E0888F9B8D8C8D62
:1002700098131AC0E889F989808185FF15C09FB756
:10028000F894EE89FF896083E889F9898081837019
:10029000806480839FBF81E090E0DF91CF911F91C8
:1002A0000F91FF90EF900895F62E0B8D10E00F5FE9
:1002B0001F4F0F731127E02E8C8D8E110CC00FB6BF
:1002C00007FCFACFE889F989808185FFF5CFCE0157
:1002D0000E940B01F1CFEB8DEC0FFD2FF11DE35AC6
:1002E000FF4FF0829FB7F8940B8FEA89FB898081DA
:1002F0008062CFCFCF93DF93EC01888D8823B9F054
:10030000AA89BB89E889F9898C9185FD03C0808120
:1003100086FD0DC00FB607FCF7CF8C9185FFF2CF9D
:10032000808185FFEDCFCE010E940B01E9CFDF91E7
:10033000CF910895CF93DF9390E0FC01E255FF4FFA
:10034000249186569F4FFC0184918823C9F090E048
:10035000880F991FFC01E859FF4FA591B491FC014A
:10036000E057FF4FC591D49161110DC09FB7F8942C
:100370008C91209582238C938881282328839FBF8A
:10038000DF91CF910895623051F49FB7F8943C917A
:10039000822F809583238C93E8812E2BEFCF8FB70C
:1003A000F894EC912E2B2C938FBFEACF3FB7F894A3
:1003B00080918F0190919001A0919101B091920153
:1003C00026B5A89B05C02F3F19F00196A11DB11DB0
:1003D0003FBFBA2FA92F982F8827BC01CD01620FEC
:1003E000711D811D911D42E0660F771F881F991FA7
:1003F0004A95D1F708958F929F92AF92BF92CF9274
:10040000DF92EF92FF924B015C010E94D6016B01DB
:100410007C010E94D6016C197D098E099F09683EF6
:10042000734081059105A8F321E0821A9108A10883
:10043000B10888EEC80E83E0D81EE11CF11C8114BF
:100440009104A104B10429F7FF90EF90DF90CF90C1
:10045000BF90AF909F908F9008950895209195013F
:10046000309196012817390771F49091930180918A
:100470009401981741F0E0919301F0E0E65BFE4FA4
:10048000808190E008958FEF9FEF08950895EF9297
:10049000FF920F931F93CF93DF93DC015C96ED9057
:1004A000FC905D97E114F10479F481E090E01396FB
:1004B0009C938E93129790E080E0DF91CF911F91F3
:1004C0000F91FF90EF9008955196ED91FC91529706
:1004D00050968C915097982F90950FB75E962C91CF
:1004E0005E97122F127021FD6095F89420811123E0
:1004F00019F1282B2083E7012197F1F728E0462FF7
:1005000050E0308160FF1AC0382B3083E70121971B
:10051000F1F7BA0175956795215089F7112381F09C
:100520008081892380830FBF5C968D919C91019778
:10053000F1F781E090E0C1CF2923DCCF3923E5CF6B
:100540009081892BEFCF209195013091960128174A
:10055000390771F4809194012091930190E0805CBF
:100560009F4F821B910960E470E00E94E6070895A6
:1005700090E080E008952091950130919601281730
:100580003907B9F49091930180919401981789F0FB
:10059000E0919301F0E0E65BFE4F808120919301B2
:1005A00030E02F5F3F4F2F7333272093930190E06C
:1005B00008958FEF9FEF089590E080E008954DE05B
:1005C00050E06EE271E08AE392E00E948D0068ECF8
:1005D00070E080E090E00C94FB010F931F93CF93A9
:1005E000DF93EC0188819981009759F02A813B8142
:1005F0002617370730F081E0DF91CF911F910F91DF
:1006000008958B016F5F7F4F0E943909009759F061
:10061000998388831B830A832C813D81232B59F77F
:10062000FC011082E8CF80E0E7CFEF92FF920F93BA
:100630001F93CF93DF93EC017B018A01BA010E94E3
:10064000ED0228813981811114C02115310519F07D
:10065000C9010E94B008198218821D821C821B8267
:100660001A82CE01DF91CF911F910F91FF90EF90F1
:1006700008951D830C83B701C9010E94FF09F1CFC2
:100680001F920F920FB60F9211242F933F934F9307
:100690005F936F937F938F939F93AF93BF93EF93EA
:1006A000FF9387E991E00E940B01FF91EF91BF91C9
:1006B000AF919F918F917F916F915F914F913F91FA
:1006C0002F910F900FBE0F901F9018951F920F92B1
:1006D0000FB60F9211242F938F939F93EF93FF9355
:1006E000E091A701F091A8018081E091AD01F09126
:1006F000AE0182FD1BC090818091B0018F5F8F732E
:100700002091B101821741F0E091B001F0E0E9568B
:10071000FE4F958F8093B001FF91EF919F918F9144
:100720002F910F900FBE0F901F9018958081F4CFDE
:100730001F920F920FB60F9211242F933F938F9316
:100740009F93AF93BF9380918B0190918C01A09167
:100750008D01B0918E0130918A0123E0230F2D3756
:1007600058F50196A11DB11D20938A0180938B013C
:1007700090938C01A0938D01B0938E0180918F0195
:1007800090919001A0919101B09192010196A11DCB
:10079000B11D80938F0190939001A0939101B0932C
:1007A0009201BF91AF919F918F913F912F910F90A7
:1007B0000FBE0F901F90189526E8230F0296A11DDB
:1007C000B11DD2CF1F920F920FB60F9211242F930B
:1007D0003F934F935F936F937F938F939F93AF93C9
:1007E000BF93EF93FF93E0910201F091030109950C
:1007F000FF91EF91BF91AF919F918F917F916F91F9
:100800005F914F913F912F910F900FBE0F901F90CE
:1008100018951F920F920FB60F9211242F933F93AA
:100820004F935F936F937F938F939F93AF93BF93F8
:10083000EF93FF93E0910001F09101010995FF9181
:10084000EF91BF91AF919F918F917F916F915F9148
:100850004F913F912F910F900FBE0F901F901895C1
:100860001F920F920FB60F9211242F933F934F9325
:100870005F936F937F938F939F93AF93BF93EF9308
:10088000FF93E0919501F0919601309749F0A6858C
:10089000B7858585968D91FF14C09C918923A1F41D
:1008A000FF91EF91BF91AF919F918F917F916F9148
:1008B0005F914F913F912F910F900FBE0F901F901E
:1008C00018959C91892361F7A389B4899C918589A6
:1008D000809589238C93868997890197F1F7608D9C
:1008E000718DA685B785558538E020E0CB0101974D
:1008F000F1F7822F90E095958795282F4C9145230D
:1009000009F02068315091F7868D81FD2095809106
:10091000940190E001968F739927309193013817D5
:1009200099F0A0919401B0E0A65BBE4F2C93809308
:100930009401828D938D0197F1F7A389B4898C91ED
:100940009589892B8C93ACCF868D8160868FF1CF72
:1009500090E0FC01EE58FF4F2491FC01E255FF4F5F
:100960003491FC01E656FF4FE491EE23C9F02223B7
:1009700039F0233001F1A8F4213019F1223029F1A6
:10098000F0E0EE0FFF1FE057FF4FA591B4918FB736
:10099000F894EC91611126C030953E233C938FBFB3
:1009A00008952730A9F02830C9F0243049F7809104
:1009B00080008F7D03C0809180008F7780938000BE
:1009C000DFCF84B58F7784BDDBCF84B58F7DFBCF40
:1009D0008091B0008F778093B000D2CF8091B0002B
:1009E0008F7DF9CF3E2BDACF10929A0110929901A8
:1009F00088EE93E0A0E0B0E080939B0190939C018F
:100A0000A0939D01B0939E012EE031E030939801B8
:100A10002093970125EC30E03093A4012093A301AB
:100A200024EC30E03093A6012093A50120EC30E0C7
:100A30003093A8012093A70121EC30E03093AA0164
:100A40002093A90122EC30E03093AC012093AB015C
:100A500026EC30E03093AE012093AD011092B0014E
:100A60001092B1011092B2011092B30110923D02A6
:100A700010923C0280933E0290933F02A09340026A
:100A8000B093410280E291E090933B0280933A025E
:100A90001092510210925002109253021092520280
:100AA0001092550210925402109257021092560260
:100AB000609158026E7F6D7F6093580266956170F9
:100AC00081E0682788E00E94A80461E088E00E9435
:100AD0009A01E6EBF0E0E491E0934A02E2EAF0E00A
:100AE000E491F0E0EE0FFF1FE057FF4F85919491E6
:100AF00090934C0280934B0260E087E00E949A0141
:100B00008091580281FD04C061E087E00E94A80442
:100B100087E080934602E5EBF0E0E491E093470242
:100B2000E1EAF0E0E491F0E0EE0FFF1FEA57FF4F3B
:100B300085919491909349028093480210923502D6
:100B4000109234021092370210923602109239023B
:100B50001092380250E040E069E471E084E392E0F2
:100B60000C941503CF93DF9300D000D000D0CDB705
:100B7000DEB7789484B5826084BD84B5816084BD1D
:100B800085B5826085BD85B5816085BD80916E002B
:100B9000816080936E00109281008091810082605C
:100BA0008093810080918100816080938100809199
:100BB00080008160809380008091B1008460809388
:100BC000B1008091B00081608093B00080917A0084
:100BD000846080937A0080917A00826080937A00AA
:100BE00080917A00816080937A0080917A00806899
:100BF00080937A001092C100E091A701F091A801C2
:100C000082E08083E091A301F091A4011082E09141
:100C1000A501F091A60180E180831092AF01E091DF
:100C2000AB01F091AC0186E08083E091A901F091E5
:100C3000AA01808180618083E091A901F091AA01DD
:100C4000808188608083E091A901F091AA01808170
:100C500080688083E091A901F091AA0180818F7D55
:100C600080831092550210925402109253021092F7
:100C7000520210925102109250028DE991E090932D
:100C800057028093560290914602963108F047C071
:100C90002DEB30E030935102209350022BE931E0EC
:100CA00030935302209352022CE231E030935502EC
:100CB000209354022091680084E0983048F031E09D
:100CC0009E3008F430E081E001C0880F3A95EAF7E1
:100CD000822B809368002DE630E0983050F02BE6B0
:100CE00030E09E3030F02CE630E0963110F030E00D
:100CF00020E030934E0220934D02292F30E09830AF
:100D000008F085C081E001C0880F9A95EAF78093CA
:100D10004F0280915602909157020197F1F780910E
:100D2000540290915502892B49F1E0919501F0917F
:100D3000960182E0EA33F80709F1309739F0A38988
:100D4000B4899C918589809589238C9380915802E0
:100D50008E7F8093580210929401109293018AE33F
:100D600092E09093960180939501E0914D02F0916D
:100D70004E02808190914F02892B808362E082E055
:100D80000E949A018FED92E09093010180930001FF
:100D900080916900836080936900E89A80E0E82E82
:100DA00080E0F82E8AE392E00E94A302181619064A
:100DB000DCF58AE392E00E94A30218161906A4F556
:100DC0008AE392E00E94BB0289831A820091380272
:100DD000109139020F5F1F4FB80184E392E00E9427
:100DE000ED02882331F32091340230913502809155
:100DF000380290913902BE016F5F7F4F820F931FBF
:100E00000E94FF091093390200933802D2CF9E301E
:100E100040F42850310981E001C0880F2A95EAF793
:100E200076CF2E503109F7CF64EF71E080E090E08B
:100E30000E94FB018091380290913902892B09F4BC
:100E400051C01A8219821C821B821E821D824AE0B6
:100E500050E06CE371E0CE0101960E941503C09052
:100E60003402D0903502C114D10409F447C0009176
:100E700038021091390201151105B1F08D819E8162
:100E8000080F191FB801CE0101960E94ED028823B8
:100E9000A9F129813A818D819E81B601820F931F2C
:100EA0000E94FF091E830D834D815E8169817A81D5
:100EB00087E991E00E948D0042E050E067E471E034
:100EC00087E991E00E948D0089819A81009711F055
:100ED0000E94B00850E040E069E471E084E392E0F1
:100EE0000E941503E114F10409F45CCF0E94F7009D
:100EF000882309F457CF0E94000054CF89819A813A
:100F0000009711F00E94B0081A8219821E821D8279
:100F10001C821B82C9CF80913402909135020097C8
:100F200011F00E94B00880E291E090933B02809320
:100F30003A0280919501909196018A53924071F402
:100F4000E0914D02F0914E02908180914F02809588
:100F500089238083109296011092950108952F9213
:100F60003F924F925F926F927F928F929F92AF9239
:100F7000BF92CF92DF92EF92FF920F931F93CF9386
:100F8000DF93CDB7DEB7CA1BDB0B0FB6F894DEBF1D
:100F90000FBECDBF09942A88398848885F846E8443
:100FA0007D848C849B84AA84B984C884DF80EE808D
:100FB000FD800C811B81AA81B981CE0FD11D0FB696
:100FC000F894DEBF0FBECDBFED01089597FB072E4D
:100FD00016F4009407D077FD09D00E94FA0707FCA9
:100FE00005D03EF4909581959F4F08957095619539
:100FF0007F4F0895AA1BBB1B51E107C0AA1FBB1F4F
:10100000A617B70710F0A61BB70B881F991F5A9594
:10101000A9F780959095BC01CD010895EE0FFF1FB3
:101020000590F491E02D09940F931F93CF93DF93D4
:101030008230910510F482E090E0E0915B02F09143
:101040005C0230E020E0B0E0A0E0309799F4211598
:10105000310509F44AC0281B390B24303105D8F575
:101060008A819B816115710589F1FB0193838283DC
:10107000FE0111C040815181028113814817590737
:10108000E0F04817590799F4109761F012960C9305
:10109000129713961C933296CF01DF91CF911F9137
:1010A0000F91089500935B0210935C02F4CF211519
:1010B000310551F04217530738F0A901DB019A01BD
:1010C000BD01DF01F801C1CFEF01F9CF90935C02C0
:1010D00080935B02CDCFFE01E20FF31F81939193CA
:1010E0002250310939832883D7CF2091590230917A
:1010F0005A02232B41F420910601309107013093CD
:101100005A022093590220910401309105012115C2
:10111000310541F42DB73EB74091080150910901C6
:10112000241B350BE0915902F0915A02E217F307A4
:10113000A0F42E1B3F0B2817390778F0AC014E5F47
:101140005F4F2417350748F04E0F5F1F50935A0228
:1011500040935902819391939FCFF0E0E0E09CCFC0
:10116000CF93DF930097E9F0FC013297138212824C
:10117000A0915B02B0915C02ED0130E020E010979D
:10118000A1F420813181820F931F20915902309167
:101190005A022817390709F061C0F0935A02E09308
:1011A0005902DF91CF910895EA01CE17DF07E8F5E4
:1011B0004A815B819E0141155105B1F7E901FB832D
:1011C000EA8349915991C40FD51FEC17FD0761F4CB
:1011D000808191810296840F951FE901998388830C
:1011E000828193819B838A83F0E0E0E012968D9167
:1011F0009C9113970097B9F52D913C911197CD01D2
:101200000296820F931F2091590230915A0228179B
:10121000390739F6309751F510925C0210925B0253
:10122000B0935A02A0935902BCCFD383C2834081AA
:101230005181840F951FC817D90761F44E5F5F4F26
:1012400088819981480F591F518340838A819B81EE
:10125000938382832115310509F0B0CFF0935C02AE
:10126000E0935B029ECFFD01DC01C0CF13821282AE
:10127000D7CFB0E0A0E0EFE3F9E00C94B1078C0128
:10128000009751F4CB010E9414088C01C801CDB71E
:10129000DEB7E0E10C94CD07FC01E60FF71F9C01DF
:1012A00022503109E217F30708F49DC0D901CD910E
:1012B000DC911197C617D70798F0C530D10530F3E8
:1012C000CE0104978617970708F3C61BD70B229702
:1012D000C193D1936D937C93CF010E94B008D6CF78
:1012E0005B01AC1ABD0A4C018C0E9D1EA0915B02E5
:1012F000B0915C02512C412CF12CE12C109731F56E
:101300008091590290915A028815990509F05CC0A4
:101310004616570608F058C08091040190910501C7
:10132000009741F48DB79EB7409108015091090193
:10133000841B950BE817F90708F055C0F0935A0283
:10134000E0935902F90171836083A0CF8D919C9144
:10135000119712966C90129713967C901397A8157C
:10136000B90559F56C0142E0C40ED11CCA14DB0466
:1013700020F1AC014A195B09DA011296159780F049
:101380006282738251834083D9016D937C93E1140F
:10139000F10471F0D7011396FC93EE93129776CF78
:1013A00022968C0F9D1FF90191838083F301EFCF6B
:1013B000F0935C02E0935B0269CF4816590608F48B
:1013C0002C017D01D3019ACFCB010E9414087C012E
:1013D000009749F0AE01B8010E94F609C8010E94C9
:1013E000B008870153CF10E000E050CFFB01DC01D3
:1013F00002C001900D9241505040D8F70895FB0172
:10140000DC0101900D920020E1F7089510E0C2E6A2
:10141000D0E004C0FE010E940E082196C336D10719
:10142000C9F7F894FFCF2D022D0200005D02800065
:10143000000000002D018D00BA007A01EB00C90008
:10144000DD000000000047028D00DC024602A3021E
:10145000BB022E0244657364652041726475696E37
:101460006F00526563696269646F3A20000D0A007B
:107E0000112484B714BE81FFF0D085E080938100F7
:107E100082E08093C00088E18093C10086E0809377
:107E2000C20080E18093C4008EE0C9D0259A86E02C
:107E300020E33CEF91E0309385002093840096BBD3
:107E4000B09BFECF1D9AA8958150A9F7CC24DD24C4
:107E500088248394B5E0AB2EA1E19A2EF3E0BF2EE7
:107E6000A2D0813461F49FD0082FAFD0023811F036
:107E7000013811F484E001C083E08DD089C08234E0
:107E800011F484E103C0853419F485E0A6D080C0E4
:107E9000853579F488D0E82EFF2485D0082F10E0AE
:107EA000102F00270E291F29000F111F8ED06801E7
:107EB0006FC0863521F484E090D080E0DECF843638
:107EC00009F040C070D06FD0082F6DD080E0C81688
:107ED00080E7D80618F4F601B7BEE895C0E0D1E017
:107EE00062D089930C17E1F7F0E0CF16F0E7DF06D8
:107EF00018F0F601B7BEE89568D007B600FCFDCFD4
:107F0000A601A0E0B1E02C9130E011968C91119780
:107F100090E0982F8827822B932B1296FA010C0160
:107F200087BEE89511244E5F5F4FF1E0A038BF0790
:107F300051F7F601A7BEE89507B600FCFDCF97BE46
:107F4000E89526C08437B1F42ED02DD0F82E2BD052
:107F50003CD0F601EF2C8F010F5F1F4F84911BD097
:107F6000EA94F801C1F70894C11CD11CFA94CF0C13
:107F7000D11C0EC0853739F428D08EE10CD085E9AC
:107F80000AD08FE07ACF813511F488E018D01DD067
:107F900080E101D065CF982F8091C00085FFFCCF94
:107FA0009093C60008958091C00087FFFCCF809118
:107FB000C00084FD01C0A8958091C6000895E0E648
:107FC000F0E098E1908380830895EDDF803219F02E
:107FD00088E0F5DFFFCF84E1DECF1F93182FE3DFCA
:107FE0001150E9F7F2DF1F91089580E0E8DFEE27F6
:047FF000FF270994CA
:027FFE00040479
:00000001FF
