:100000000C9458000C9480000C9480000C94800098
:100010000C9480000C9480000C9480000C94800060
:100020000C9480000C9480000C9480000C94800050
:100030000C9480000C9480000C9480000C94800040
:100040000C940F050C9480000C94DD040C94B70400
:100050000C9480000C9480000C9480000C94800020
:100060000C9459050C948000000000002500280025
:100070002B00040404040404040402020202020229
:10008000030303030303010204081020408001025C
:1000900004081020010204081020000000080002DB
:1000A00001000003040700000000000000007806C3
:1000B00011241FBECFEFD8E0DEBFCDBF11E0A0E01E
:1000C000B1E0ECE6F1E102C005900D92A035B10778
:1000D000D9F722E0A0E5B1E001C01D92A23CB20731
:1000E000E1F710E0C8E5D0E004C02197FE010E94CE
:1000F0008907C735D107C9F70E94B5060C94B40823
:100100000C94000008950895AF92BF92CF92DF92B1
:10011000EF92FF920F931F93CF93DF936C017B01BC
:100120008B01040F151FEB015E01AE18BF08C0174D
:10013000D10759F06991D601ED91FC910190F081C0
:10014000E02DC6010995892B79F7C501DF91CF9183
:100150001F910F91FF90EF90DF90CF90BF90AF90E5
:100160000895FC01538D448D252F30E0842F90E0BD
:10017000821B930B541710F0CF96089501970895A2
:10018000FC01918D828D981761F0A28DAE0FBF2F6B
:10019000B11D5D968C91928D9F5F9F73928F90E0C1
:1001A00008958FEF9FEF0895FC01918D828D981730
:1001B00031F0828DE80FF11D858D90E008958FEF6D
:1001C0009FEF0895FC01918D228D892F90E0805C36
:1001D0009F4F821B91098F739927089583E192E0C5
:1001E0000E94E20021E0892B09F420E0822F08958B
:1001F00080E090E0892B29F00E94EE0081110C94A0
:1002000000000895FC01A48DA80FB92FB11DA35AB9
:10021000BF4F2C91848D90E001968F739927848F26
:10022000A689B7892C93A089B1898C918370806449
:100230008C93938D848D981306C00288F389E02DEA
:1002400080818F7D80830895EF92FF920F931F939B
:10025000CF93DF93EC0181E0888F9B8D8C8D981379
:100260001AC0E889F989808185FF15C09FB7F89485
:10027000EE89FF896083E889F989808183708064D1
:1002800080839FBF81E090E0DF91CF911F910F911C
:10029000FF90EF900895F62E0B8D10E00F5F1F4F2B
:1002A0000F731127E02E8C8D8E110CC00FB607FC3A
:1002B000FACFE889F989808185FFF5CFCE010E94C8
:1002C0000201F1CFEB8DEC0FFD2FF11DE35AFF4F33
:1002D000F0829FB7F8940B8FEA89FB898081806256
:1002E000CFCFCF93DF93EC01888D8823B9F0AA8913
:1002F000BB89E889F9898C9185FD03C0808186FDE1
:100300000DC00FB607FCF7CF8C9185FFF2CF80812F
:1003100085FFEDCFCE010E940201E9CFDF91CF91A1
:10032000089590E0FC01E656FF4F2491FC01EA5746
:10033000FF4F3491FC01EE58FF4FE491EE23C9F0DA
:10034000222339F0233001F1A8F4213019F12230B1
:1003500029F1F0E0EE0FFF1FE859FF4FA591B4918E
:100360008FB7F894EC91611126C030953E233C93F1
:100370008FBF08952730A9F02830C9F0243049F7FD
:10038000809180008F7D03C0809180008F77809363
:100390008000DFCF84B58F7784BDDBCF84B58F7DC0
:1003A000FBCF8091B0008F778093B000D2CF809147
:1003B000B0008F7DF9CF3E2BDACF3FB7F894809114
:1003C000B9019091BA01A091BB01B091BC0126B5D1
:1003D000A89B05C02F3F19F00196A11DB11D3FBF7D
:1003E000BA2FA92F982F8827BC01CD01620F711D4C
:1003F000811D911D42E0660F771F881F991F4A9546
:10040000D1F7089520919101260F3327331F213210
:100410003105ECF42091E901FC0190E080E024300A
:1004200069F082E00895A09191012191AC014F58AB
:100430005E4FA40FB52FB11D2C930196861798F32C
:1004400080919101680F6093910180E0089581E0AF
:1004500008951092E90181E08093E8011092C301B0
:1004600061E082E10E94910161E083E10E949101DB
:10047000E9EBF0E080818E7F808380818D7F8083B7
:1004800088E48093B80085E48093BC000895CF93FE
:10049000DF9391E0909370018823B9F0C091B80088
:1004A000D091BA008091BC008A7B8093BC0060E050
:1004B00082E10E94910160E083E10E9491010E942B
:1004C0002902D093BA00C093B800DF91CF9108956C
:1004D0008F929F92AF92BF92CF92DF92EF92FF9254
:1004E0000F931F93CF93DF93D0911202D13208F074
:1004F000D7C0182FC09111020E94DD016B017C0151
:100500008091E90181116BC082E08093E901109331
:10051000E8018FEF8093E7011092E601D093E501A7
:10052000A1EFB1E0E5ECF1E080E0D81391C01092CA
:10053000C4018091C401CC0FC82BC093C401809129
:10054000C301813009F088C01092C3010E94DD010F
:100550006B017C018091C4018093BB008091EB0111
:100560009091EC01A091ED01B091EE01892B8A2BC5
:100570008B2BA1F00E94DD010091EB011091EC01A9
:100580002091ED013091EE016C197D098E099F09D2
:10059000061717072807390708F442C08091BC00E6
:1005A00083FDD8CF85EC8093BC000E94DD016B01F8
:1005B0007C018091E901823009F450C08091E7010B
:1005C0008F3F09F46FC08091E701803209F46CC05D
:1005D0008091E701803309F469C084E026C08091EE
:1005E000EB019091EC01A091ED01B091EE01892B0E
:1005F0008A2B8B2B09F484CF0E94DD018090EB01C4
:100600009090EC01A090ED01B090EE016C197D0985
:100610008E099F0986169706A806B90608F070CFBE
:100620008091EA010E94470285E01092F001109249
:1006300012021092EF01DF91CF911F910F91FF9065
:10064000EF90DF90CF90BF90AF909F908F900895E4
:100650009D9191938F5F69CF85EEA5CF8091EB013E
:100660009091EC01A091ED01B091EE01892B8A2BC4
:100670008B2B09F49ECF0E94DD010091EB011091BC
:10068000EC012091ED013091EE016C197D098E098C
:100690009F09061717072807390708F08ACFC0CF28
:1006A00081E0C3CF80E0C1CF82E0BFCF83E0BDCF88
:1006B000CF93DF93EC018B818823A1F0888191E0B7
:1006C0009093EF01809311021092F00110921202A8
:1006D00081E00E94680291E0811190E0892FDF9112
:1006E000CF9108951092C2011092C1011092F001B1
:1006F000109212020E94290282E890E09093C001B9
:100700008093BF0183E890E09093BE018093BD0188
:1007100081E08B83CE010E945803982F8111CECFA8
:10072000DDCF0895E091C2018091C101E81730F456
:10073000F0E0E05BFE4F808190E008958FEF9FEF47
:1007400008959091C2018091C1012FEF3FEF98175A
:1007500048F4E92FF0E0E05BFE4F208130E09F5F3E
:100760009093C201C90108958091C1019091C20185
:10077000891B990B0895CF92DF92EF92FF920F930E
:100780001F93CF93DF937C01CB018A012091EF016E
:10079000222389F0EB016B01C40ED51ECC15DD05BB
:1007A00069F06991D701ED91FC910190F081E02D04
:1007B000C7010995F3CF642F0E940202C801DF919F
:1007C000CF911F910F91FF90EF90DF90CF90089500
:1007D000CF93DF931F92CDB7DEB769832091EF01EE
:1007E0002223F9F020911202203258F021E030E06B
:1007F000FC013383228390E080E00F90DF91CF9162
:1008000008958091F001E82FF0E0EF50FE4F9981BC
:1008100090838F5F8093F0018093120281E090E0DB
:10082000ECCF61E0CE0101960E940202F7CF90E08A
:1008300080E00895CF93DF93FC0101900020E9F759
:100840003197AF01481B590BBC0183E192E00E9434
:100850008400EC0142E050E06AE271E083E192E062
:100860000E9484008C0F9D1FDF91CF910895CF933C
:10087000DF9300D01F92CDB7DEB72CE02093B800F5
:1008800020E429839C0194E0369527959A95E1F719
:100890002A838295807F8B83E091BC02F091BD0218
:1008A00084819581039738F480E00F900F900F902A
:1008B000DF91CF91089581819281208131E0309341
:1008C000EF01209311021092F00110921202DC014C
:1008D000ED91FC910280F381E02D43E050E0BE01F8
:1008E0006F5F7F4F09950397F9F681E00E946802D8
:1008F0008111DACF88E48093B80081E0D6CF85ED0E
:100900008093BC008091EB019091EC01A091ED01EE
:10091000B091EE010796A11DB11D23E0B695A795F4
:10092000979587952A95D1F72091BC0024FD03C0A7
:100930001092E90108954091EB015091EC01609112
:10094000ED017091EE01452B462B472B69F3009783
:10095000A105B10541F02AE22A95F1F700C00197FF
:10096000A109B109E1CF8091EA010C9447021F92DD
:100970000F920FB60F9211242F933F934F935F93D3
:100980006F937F938F939F93AF93BF93EF93FF9357
:1009900083E192E00E940201FF91EF91BF91AF913C
:1009A0009F918F917F916F915F914F913F912F9187
:1009B0000F900FBE0F901F9018951F920F920FB6B9
:1009C0000F9211242F938F939F93EF93FF93E091B6
:1009D0002302F09124028081E0912902F0912A0201
:1009E00082FD1BC0908180912C028F5F8F732091BC
:1009F0002D02821741F0E0912C02F0E0ED5EFD4FF8
:100A0000958F80932C02FF91EF919F918F912F9161
:100A10000F900FBE0F901F9018958081F4CF1F92FA
:100A20000F920FB60F9211242F933F938F939F93A2
:100A3000AF93BF938091B5019091B601A091B7019A
:100A4000B091B8013091B40123E0230F2D3758F550
:100A50000196A11DB11D2093B4018093B50190931F
:100A6000B601A093B701B093B8018091B9019091FC
:100A7000BA01A091BB01B091BC010196A11DB11DAD
:100A80008093B9019093BA01A093BB01B093BC01CC
:100A9000BF91AF919F918F913F912F910F900FBE7A
:100AA0000F901F90189526E8230F0296A11DB11DE7
:100AB000D2CF1F920F920FB60F9211242F933F9314
:100AC0004F935F936F937F938F939F93AF93BF9356
:100AD000EF93FF938091B900887F803609F44AC074
:100AE000F0F5883209F4A7C018F5803109F49BC0ED
:100AF000B8F4882309F4F9C0883009F494C0FF9150
:100B0000EF91BF91AF919F918F917F916F915F9185
:100B10004F913F912F910F900FBE0F901F901895FE
:100B2000883109F488C0803251F78093E70114C0FE
:100B3000803409F49DC040F48033B9F38833F9F66A
:100B40008093E70185ECB0C0803509F485C0883515
:100B500009F496C0883499F60E947F04D0CF883972
:100B600009F48CC038F5883729F050F4883611F034
:100B7000803729F683E08093E9011092B30157C0D2
:100B8000883809F47BC0803919F0803809F0B7CF74
:100B90008091B301803208F071C0E091B30181E02F
:100BA0008E0F8093B3018091BB00F0E0ED56FE4FB5
:100BB00080833DC0803B39F0E0F4803A09F479C08D
:100BC000883A09F09CCF84E08093E9011092920169
:100BD00010929101E091BF01F091C00109958091BF
:100BE000910181110FC081E08093910110927101F8
:100BF00009C0803C09F4A6CF883C09F4A3CF883B08
:100C000009F07DCFE091920181E08E0F80939201F7
:100C1000F0E0EF58FE4F80818093BB0090919201ED
:100C20008091910129C08091C4018093BB0085EC23
:100C30008093BC0064CF9091E6018091E501981704
:100C400058F5E091E60181E08E0F8093E601F0E037
:100C5000EB53FE4F8081E9CFE091E60181E08E0FFA
:100C60008093E6018091BB00F0E0EB53FE4F808360
:100C70009091E6018091E5019817C8F285E8D8CFF8
:100C8000E091E60181E08E0F8093E6018091BB0048
:100C9000F0E0EB53FE4F80838091E80181115CCF3F
:100CA00081E08093C30184EA8093BC001092E90143
:100CB00026CF85EC8093BC001092E9018091B301AE
:100CC000803230F4E091B301F0E0ED56FE4F108237
:100CD0006091B30170E0E091BD01F091BE0183E944
:100CE00091E009951092B3010ACF1092E70134CF39
:100CF000E3E1F2E01382128288EE93E0A0E0B0E03C
:100D000084839583A683B7832AE031E031832083EF
:100D100025EC30E03587248724EC30E037872687C0
:100D200020EC30E0318B208B21EC30E0338B228BB8
:100D300022EC30E0358B248B26EC30E0378B268B91
:100D4000118E128E138E148EE0EBF2E0138212825B
:100D500084839583A683B7838CE191E0918380831C
:100D60001092BD021092BC020895789484B58260FE
:100D700084BD84B5816084BD85B5826085BD85B53F
:100D8000816085BD80916E00816080936E001092BD
:100D90008100809181008260809381008091810038
:100DA00081608093810080918000816080938000C9
:100DB0008091B10084608093B1008091B000816027
:100DC0008093B00080917A00846080937A00809153
:100DD0007A00826080937A0080917A0081608093AB
:100DE0007A0080917A00806880937A001092C10026
:100DF000E0912302F091240282E08083E0911F02BF
:100E0000F09120021082E0912102F09122028FECF9
:100E1000808310922B02E0912702F091280286E055
:100E20008083E0912502F091260280818061808399
:100E3000E0912502F0912602808188608083E09114
:100E40002502F0912602808180688083E09125024E
:100E5000F091260280818F7D80838DE291E00E9457
:100E60001A048091BC029091BD02009711F00E947B
:100E70002B0886E090E00E948F07EC0183E68883D0
:100E800080EB92E09A8389831B8280E290E09D83CD
:100E90008C83D093BD02C093BC021092C201109209
:100EA000C1011092F001109212020E94290282E800
:100EB00090E09093C0018093BF0183E890E090930D
:100EC000BE018093BD0181E08B83CE010E94580357
:100ED00084E391E00E941A0400E010E0D0E0C0E05A
:100EE000CE010E9437042196CF3F8FE0D807C1F78B
:100EF000CFEFDFE0CE010E9437042197D9F701152B
:100F0000110561F30E94EE00882341F30E94000066
:100F1000E5CFEE0FFF1F0590F491E02D09940F939C
:100F20001F93CF93DF938230910510F482E090E01D
:100F3000E091C002F091C10230E020E0B0E0A0E01A
:100F4000309799F42115310509F44AC0281B390B53
:100F500024303105D8F58A819B816115710589F1AD
:100F6000FB0193838283FE0111C040815181028184
:100F7000138148175907E0F04817590799F410975B
:100F800061F012960C93129713961C933296CF0130
:100F9000DF91CF911F910F9108950093C00210939C
:100FA000C102F4CF2115310551F04217530738F033
:100FB000A901DB019A01BD01DF01F801C1CFEF01F9
:100FC000F9CF9093C1028093C002CDCFFE01E20F12
:100FD000F31F819391932250310939832883D7CF0E
:100FE0002091BE023091BF02232B41F420910201D7
:100FF000309103013093BF022093BE022091000183
:10100000309101012115310541F42DB73EB74091D2
:10101000040150910501241B350BE091BE02F091B3
:10102000BF02E217F307A0F42E1B3F0B2817390766
:1010300078F0AC014E5F5F4F2417350748F04E0F34
:101040005F1F5093BF024093BE02819391939FCF45
:10105000F0E0E0E09CCFCF93DF930097E9F0FC0154
:10106000329713821282A091C002B091C102ED01A9
:1010700030E020E01097A1F420813181820F931F8E
:101080002091BE023091BF022817390709F061C0D4
:10109000F093BF02E093BE02DF91CF910895EA0181
:1010A000CE17DF07E8F54A815B819E0141155105A6
:1010B000B1F7E901FB83EA8349915991C40FD51F28
:1010C000EC17FD0761F4808191810296840F951FD2
:1010D000E90199838883828193819B838A83F0E0ED
:1010E000E0E012968D919C9113970097B9F52D91A0
:1010F0003C911197CD010296820F931F2091BE0261
:101100003091BF022817390739F6309751F5109200
:10111000C1021092C002B093BF02A093BE02BCCF26
:10112000D383C28340815181840F951FC817D9078B
:1011300061F44E5F5F4F88819981480F591F518339
:1011400040838A819B81938382832115310509F035
:10115000B0CFF093C102E093C0029ECFFD01DC014D
:0C116000C0CF13821282D7CFF894FFCFCB
:10116C000000C20280000000000024018400B100D5
:10117C007101E200C000D40000000000E803BB03D2
:10118C0017049103B403A10392030D0A0048656C84
:10119C006C6F210047656E65726174696E672061C2
:1011AC0020747269616E676C6520776176650000EA
:00000001FF
